:100000000C944C000C946B000C946B000C946B00E3
:100010000C946B000C946B000C946B000C946B00B4
:100020000C946B000C946B000C946B000C946B00A4
:100030000C946B000C946B000C946B000C946B0094
:100040000C946B000C946B000C946B000C946B0084
:100050000C946B000C946B000C946B000C946B0074
:100060000C946B000C946B000C946B000C946B0064
:100070000C946B000C946B000C946B000C946B0054
:100080000C946B000C946B000C946B000C946B0044
:100090000C946B000C946B0011241FBECFEFD0E2C8
:1000A000DEBFCDBF11E0A0E0B1E0E0EEF4E000E0A3
:1000B0000BBF02C007900D92A431B107D9F711E030
:1000C000A4E1B1E001C01D92A032B107E1F70E94A6
:1000D0006D000C946E020C9400001F93CF93DF937D
:1000E0000E94AE0085E584B915B880911401909105
:1000F0001501909319018093180114E5C0E9D1E02E
:10010000110F110F1F5F1535D9F0912F9A6A212F0A
:10011000257585B1982395B985B1282B25B980E03F
:1001200091E00E94110120E137E2CE010197F1F741
:1001300021503040D1F7110F110F1F5F153529F7EE
:1001400014E59EEF24E5E5CF982F8091C80085FF48
:10015000FCCF9093CE0080E090E008951092CD0007
:1001600083E38093CC00E9ECF0E0808188608083B9
:1001700084EA90E060E070E00E94C5009093150171
:100180008093140180E090E008950F931F93CF9324
:10019000DF938C01EB01009731F46115710519F4BF
:1001A00020E030E038C081E090E06EE070E00E9436
:1001B0004601FC019C01009771F180E88383209740
:1001C00071F0D387C28781E8838380911601909173
:1001D0001701892B21F4F0931701E0931601011503
:1001E0001105C9F011870087838182608383809124
:1001F000180190911901892B71F4F0931901E09382
:10020000180180911A0190911B01892B21F4F09320
:100210001B01E0931A01C901DF91CF911F910F914A
:1002200008950F931F93CF93DF938C01E0911801F2
:10023000F0911901838181FF21C0C0E0D0E00DC0A1
:10024000E0911801F091190120853185BF01F90174
:100250000995892B11F0CFEFDFEFF80181918F0124
:10026000882371F7E0911801F091190120853185FB
:100270008AE0BF01F9010995892B11F0CFEFDFEF7B
:10028000CE01DF91CF911F910F9108950F931F938E
:10029000CF93DF93689F8001699F100D789F100DA9
:1002A0001124C8010E946201EC01009729F060E06E
:1002B00070E0A8010E946702CE01DF91CF911F91EB
:1002C0000F910895CF93DF93BC018230910510F414
:1002D00062E070E0A0911E01B0911F01ED01E0E02D
:1002E000F0E040E050E021C08881998186179707AF
:1002F00069F48A819B81309719F09383828304C0CB
:1003000090931F0180931E01FE0134C06817790786
:1003100038F44115510519F08417950708F4AC011C
:10032000FE018A819B819C01E9012097E9F6411534
:100330005105A9F1CA01861B970B049708F4BA016D
:10034000E0E0F0E02AC08D919C9111978417950709
:10035000F9F46417750781F412968D919C911397A7
:10036000309719F09383828304C090931F01809388
:100370001E01FD0132964FC0CA01861B970BFD017D
:10038000E80FF91F6193719302978D939C9343C07B
:10039000FD01828193819C01D9011097A1F6809182
:1003A0001C0190911D01892B41F4809110019091C5
:1003B000110190931D0180931C01409112015091F5
:1003C00013014115510541F44DB75EB780910E01FF
:1003D00090910F01481B590B20911C0130911D0178
:1003E00024173507B0F4CA01821B930B86179707B1
:1003F00080F0AB014E5F5F4F8417950750F0420FBE
:10040000531F50931D0140931C01F9016193719397
:1004100002C0E0E0F0E0CF01DF91CF910895CF93EB
:10042000DF93009709F450C0EC0122971B821A82D7
:10043000A0911E01B0911F01109709F140E050E01A
:10044000AC17BD0708F1BB83AA83FE01219131914E
:10045000E20FF31FAE17BF0779F48D919C911197AE
:10046000280F391F2E5F3F4F3983288312968D91B5
:100470009C9113979B838A834115510571F4D09306
:100480001F01C0931E0120C012968D919C9113975D
:10049000AD01009711F0DC01D3CFFA01D383C28301
:1004A00021913191E20FF31FCE17DF0769F48881A4
:1004B0009981280F391F2E5F3F4FFA013183208326
:1004C0008A819B8193838283DF91CF910895DC01A0
:1004D00001C06D9341505040E0F70895F894FFCF6C
:1004E00048656C6C6F2C20776F726C642100200063
:0404F00020010000E7
:00000001FF
